:100000000C9462000C948A000C948A000C948A0070
:100010000C948A000C948A000C948A000C948A0038
:100020000C948A000C948A000C948A000C948A0028
:100030000C948A000C948A000C948A000C948A0018
:100040000C94DC030C948A000C948A000C948A00B3
:100050000C948A000C948A000C948A000C948A00F8
:100060000C948A000C948A000000000024002700F1
:100070002A0000000000250028002B0000000000DE
:1000800023002600290004040404040404040202DA
:100090000202020203030303030301020408102007
:1000A0004080010204081020010204081020000012
:1000B0000008000201000003040700000000000027
:1000C0000000220611241FBECFEFD8E0DEBFCDBF57
:1000D00011E0A0E0B1E0E0E4FDE002C005900D9287
:1000E000A038B107D9F722E0A0E8B1E001C01D9225
:1000F000A231B207E1F710E0C2E6D0E004C02197D8
:10010000FE010E949806C136D107C9F70E94260455
:100110000C949E060C94000096E0899FD001112457
:10012000A557BE4F90967C936E935F9791E0919602
:100130009C939197E091F801F091F9019091F7016A
:10014000992339F0309751F0811108C08091A701AF
:100150000994309719F05C968C91FACF0895CF925C
:10016000DF92EF92FF920F931F9396E0899FF00129
:100170001124E557FE4F11A2278D30A12130310502
:1001800051F178F02230310509F451C023303105A6
:1001900009F452C01F910F91FF90EF90DF90CF9024
:1001A00008956623B9F361E070E00E948C002FB7D8
:1001B000F8948091870190918801A0918901B09174
:1001C0008A012FBF8093E3019093E401A093E5019E
:1001D000B093E601DFCF9FB7F894C0908701D0902D
:1001E0008801E0908901F0908A019FBF0091E301AE
:1001F0001091E4012091E5013091E601C01AD10A85
:10020000E20AF30A0091F5011091F60130E020E0D6
:100210000C151D052E053F0550F462E070E01F919E
:100220000F91FF90EF90DF90CF900C948C006111B4
:10023000B1CF63E070E0F3CF70E060E0F0CFAF9259
:10024000BF92CF92DF92EF92FF920F931F93CF93C3
:10025000DF936C017B018B01040F151FEB015E0125
:10026000AE18BF08C017D10759F06991D601ED91BA
:10027000FC910190F081E02DC6010995892B79F759
:10028000C501DF91CF911F910F91FF90EF90DF900B
:10029000CF90BF90AF900895833081F028F48130E3
:1002A00099F08230A9F008958730A9F08830C9F01C
:1002B0008430B1F4809180008F7D03C080918000F4
:1002C0008F7780938000089584B58F7784BD0895DB
:1002D00084B58F7DFBCF8091B0008F778093B00085
:1002E00008958091B0008F7DF9CFCF93DF93282FB1
:1002F00030E0F901E255FF4F8491F901E656FF4FD6
:10030000D491F901EA57FF4FC491CC23A1F0811198
:100310000E944C01EC2FF0E0EE0FFF1FE458FF4F5E
:10032000A591B491EC91ED2381E090E009F480E097
:10033000DF91CF91089580E090E0FACF862F0C9462
:1003400075011F93CF93DF93282F30E0F901E25519
:10035000FF4F8491F901E656FF4FD491F901EA5716
:10036000FF4FC491CC23A9F0162F81110E944C019C
:10037000EC2FF0E0EE0FFF1FEE58FF4FA591B49168
:100380008FB7F894EC91111108C0D095DE23DC935F
:100390008FBFDF91CF911F910895DE2BF8CF862F6D
:1003A000642F0C94A101CF93DF9390E0FC01E656FB
:1003B000FF4F24918A579F4FFC0184918823C9F0F5
:1003C00090E0880F991FFC01E859FF4FA591B49167
:1003D000FC01EE58FF4FC591D49161110DC09FB73C
:1003E000F8948C91209582238C93888128232883EC
:1003F0009FBFDF91CF910895623051F49FB7F89479
:100400003C91822F809583238C93E8812E2BEFCF14
:100410008FB7F894EC912E2B2C938FBFEACF862FB9
:10042000642F0C94D3013FB7F8948091810190918F
:100430008201A0918301B091840126B5A89B05C0DB
:100440002F3F19F00196A11DB11D3FBFBA2FA92F53
:10045000982F8827BC01CD01620F711D811D911D50
:1004600042E0660F771F881F991F4A95D1F70895BC
:100470008F929F92AF92BF92CF92DF92EF92FF92B4
:100480004B015C010E9413026B017C010E9413026C
:100490006C197D098E099F09683E7340810591059D
:1004A000A8F321E0821A9108A108B10888EEC80ECD
:1004B00083E0D81EE11CF11C81149104A104B10455
:1004C00029F7FF90EF90DF90CF90BF90AF909F9073
:1004D0008F900895089590E080E0089561E08AE0AB
:1004E0000E94A10160E089E00C94A101FC0101904F
:1004F0000020E9F73197AF01481B590BBC018AEF87
:1005000091E00C941F01CF93DF93EC0160E08E81AA
:100510000E94A10161E08E810E94A10160E08E81B4
:100520000E94A1018BE891E00197F1F7DF91CF9153
:100530000895CF92DF92EF92FF920F931F93CF9384
:10054000DF936C017C0187E0E80EF11CD0E0C0E095
:10055000062F10E0B8010C2E02C0759567950A941D
:10056000E2F76170F70181917F010E94A10121965C
:10057000C430D10579F7C601DF91CF911F910F915A
:10058000FF90EF90DF90CF900C948302CF92DF9298
:10059000EF92FF920F931F93CF93DF93EC01F62E10
:1005A000642F8C810E94A1018D818F3F19F060E042
:1005B0000E94A1010F2D10E08F8584FF25C06E01E0
:1005C00087E0C80ED11CF12CE12CB8010E2C02C022
:1005D000759567950A94E2F76170F60181916F0154
:1005E0000E94A101FFEFEF1AFF0A88E0E816F1046C
:1005F00061F7CE01DF91CF911F910F91FF90EF90A6
:10060000DF90CF900C948302B80184E075956795D4
:100610008A95E1F7CE010E9499026F2DCE01DF91FC
:10062000CF911F910F91FF90EF90DF90CF900C949E
:10063000990240E0682F8AEF91E00C94C60281E0B5
:100640000E9419038BE39FE10197F1F70895CF937F
:10065000DF93823029F49091090298609093090207
:1006600080930D0210920E0280E480930F0280E1CD
:100670008093100280E58093110261E08091FE0179
:100680000E94D3018091FF018F3F19F061E00E9429
:10069000D30161E0809100020E94D301CAEFD1E052
:1006A0009E012A5F31408091090284FD0BC084E0E5
:1006B00090E021962817390744F461E08E810E946A
:1006C000D301EECF88E090E0F4CF8BE39DE001977B
:1006D000F1F760E08091FE010E94A10160E080914D
:1006E00000020E94A1018091FF018F3F19F060E09C
:1006F0000E94A1018091090284FD34C063E08AEF69
:1007000091E00E949902CBE4D6E4CE010197F1F783
:1007100063E08AEF91E00E9499022197F1F763E08C
:100720008AEF91E00E94990283E592E00197F1F748
:1007300062E08AEF91E00E94990280910902806252
:100740000E94190384E080930A028CE00E9419033E
:100750000E941F0382E080930B0286E0DF91CF911D
:100760000C94190380620E9419038BE496E40197AC
:10077000F1F78091090280620E94190383E592E0FB
:100780000197F1F78091090280620E941903D5CF89
:1007900090910D02891710F08FEF890FE82FF0E08C
:1007A000E650FE4F848980680C94190341E00E9452
:1007B000C60281E090E008951F920F920FB60F924B
:1007C00011242F933F938F939F93AF93BF93809167
:1007D000870190918801A0918901B0918A0130919F
:1007E000800123E0230F2D3758F50196A11DB11D7F
:1007F000209380018093870190938801A0938901C1
:10080000B0938A018091810190918201A09183012E
:10081000B09184010196A11DB11D80938101909337
:100820008201A0938301B0938401BF91AF919F9106
:100830008F913F912F910F900FBE0F901F901895A1
:1008400026E8230F0296A11DB11DD2CF789484B55E
:10085000826084BD84B5816084BD85B5826085BDBC
:1008600085B5816085BD80916E00816080936E004A
:10087000109281008091810082608093810080913C
:1008800081008160809381008091800081608093ED
:1008900080008091B10084608093B1008091B000AD
:1008A00081608093B00080917A00846080937A00A8
:1008B00080917A00826080937A0080917A008160D2
:1008C00080937A0080917A00806880937A001092F9
:1008D000C10082E00E94270361E08AE00E94D30108
:1008E00061E089E00E94D3010E946E02812C912C6C
:1008F0005401839422242A94322C50E0652E50E037
:10090000752E51E05093F7018FB7F894409187010D
:10091000509188016091890170918A018FBF809107
:10092000E7019091E801A091E901B091EA01481B2B
:10093000590B6A0B7B0B8091F3019091F401B0E0AD
:10094000A0E084179507A607B70708F009C1C0E023
:100950008091F101C81760F4E091ED01F091EE0192
:10096000EC0FF11D62E080810E94D301CF5FF0CFD8
:10097000512C8091F201581608F05FC0052D10E04F
:10098000E091EF01F091F001E00FF11F61E0808153
:100990000E94D301E091EF01F091F001E00FF11F0F
:1009A00060E080810E94A101D501C401052C04C032
:1009B000880F991FAA1FBB1F0A94D2F76C017C01F4
:1009C000E094F094412C8091F1014816F8F4C42D84
:1009D000D0E0E091ED01F091EE01EC0FFD1F808180
:1009E0000E9475012496CC0FDD1FC557DE4F892B61
:1009F00041F4888199818C299D2999838883439426
:100A0000E2CF888199818E219F21F7CFE091EF017C
:100A1000F091F001E00FF11F61E080810E94A101DF
:100A20008091EF019091F001080F191F60E0F8012B
:100A300080810E94D30153949CCFCBE8D1E0FE018A
:100A4000878D90A1892B21F4148E368E258E11A2CC
:100A5000369651E0E73CF50799F710E08091F101F7
:100A6000181708F053C000E0E12EF12CEE0CFF1C2B
:100A7000C7018D569E4F7C012091F201021708F0AC
:100A800043C0F70160817181002E02C076956795A1
:100A90000A94E2F7129F90011124200F311DEBE818
:100AA000F1E080E0458D568D2417350709F4C8C064
:100AB0008F5F36968A30B1F760FF24C0EBE8F1E033
:100AC00090E080E0448D411118C0E091EB01F0917D
:100AD000EC01E20FF31F408156E0589FF001599F4F
:100AE000F00D1124E557FE4F448F368F258F10A24D
:100AF000178E61E00E94AF0005C0019636968A30DD
:100B0000910501F70F5FB8CF1F5FA8CF80E099A1D3
:100B10009111892F269691E0C73CD907C1F79FB75D
:100B2000F8944091870150918801609189017091FA
:100B30008A019FBF4093E7015093E8016093E90168
:100B40007093EA01882361F08091AC01882341F021
:100B50008091AA019091AB01C091A701019719F072
:100B60001092F701C0E080E00E94C8038EE291E09D
:100B70000E94760281E00E94C8038AE391E00E940D
:100B80007602C33209F04CC01092860110928501A2
:100B90000E946E020E941F0380E00E94C8038AE444
:100BA00091E00E94760268EE73E080E090E00E949F
:100BB00038020E941F038091850190918601FC01FB
:100BC000E859FE4F20812C1305C0019690938601B1
:100BD0008093850180918501909186010697C9F4E3
:100BE00060E08AE00E94A10161E089E00E94A10129
:100BF0000E941F0380E00E94C8038FE691E00E94DC
:100C0000760268EB7BE080E090E00E9438020E9470
:100C10001F036114710409F474CE0E94000071CEA8
:100C20008C2F8D7F8D3221F086ED8C0F823018F65F
:100C30000E941F0380E00E94C80389E591E0B1CFC4
:100C4000617058CF10928D01109291011092900115
:100C50001092920188E291E090938C0180938B0135
:100C6000E7EAF1E01082148213821582369681E061
:100C7000E33EF807B9F784E091E09093EE018093AA
:100C8000ED0180E091E09093F0018093EF0184E02A
:100C90008093F1018093F20188E091E09093EC0160
:100CA0008093EB018AE090E09093F4018093F3014C
:100CB00084EF91E09093F6018093F5011092F90191
:100CC0001092F8011092E7011092E8011092E901E8
:100CD0001092EA011092F7011092FD011092FC01AE
:100CE0008CE191E09093FB018093FA018EE0809378
:100CF000FE018FEF8093FF018FE08093000280E17F
:100D00008093010281E18093020282E180930302D9
:100D100083E1809304021092050210920602109261
:100D20000702109208021092090281E00C94270336
:100D3000EE0FFF1F0590F491E02D0994F894FFCF7A
:100D400005060708010203043738392F3435362ADF
:100D50003132332D6330232B00000000D6031F01F6
:100D60006B026A02000000000F02CF019E012020EA
:100D7000202057656C636F6D650020456E74657249
:100D80002050617373776F7264002020446F6F721C
:100D9000204C6F636B656421002020496E76616C86
:100DA0006964204B65792100313435323738002AA7
:100DB0002A2A205665726966696564202A2A2A00F3
:00000001FF
