:020000040000FA
:100000000C9463000C948B000C948B000C948B006C
:100010000C948B000C948B000C948B000C948B0034
:100020000C948B000C948B000C948B000C948B0024
:100030000C948B000C948B000C948B000C948B0014
:100040000C94E6050C948B000C94B4050C948E056E
:100050000C948B000C948B000C948B000C948B00F4
:100060000C948B000C948B000000000024002700EF
:100070002A0000000000250028002B0000000008D6
:10008000000201000003040700000000000000005F
:1000900000000000230026002900040404040404D6
:1000A0000404020202020202030303030303010227
:1000B00004081020408001020408102001020408F6
:1000C00010207506380C11241FBECFEFD8E0DEBF1C
:1000D000CDBF12E0A0E0B1E0E2EAFDE102C0059090
:1000E0000D92A434B107D9F723E0A4E4B2E001C033
:1000F0001D92A538B207E1F710E0C2E6D0E004C0D7
:100100002197FE010E94990DC136D107C9F70E94BF
:1001100058070C94C40E0C94000096E0899FD001FF
:100120001124AE5EBC4F90967C936E935F9791E0E6
:1001300091969C939197E0917F03F0918003909129
:100140007E03992339F0309751F0811108C08091D6
:100150002E030994309719F05C968C91FACF08958C
:10016000CF92DF92EF92FF920F931F9396E0899FB9
:10017000F0011124EE5EFC4F11A2278D30A1213039
:10018000310551F178F02230310509F451C02330A6
:10019000310509F452C01F910F91FF90EF90DF904D
:1001A000CF9008956623B9F361E070E00E948D005E
:1001B0002FB7F8948091530290915402A091550268
:1001C000B09156022FBF80936A0390936B03A09364
:1001D0006C03B0936D03DFCF9FB7F894C0905302C8
:1001E000D0905402E0905502F09056029FBF0091CB
:1001F0006A0310916B0320916C0330916D03C01A58
:10020000D10AE20AF30A00917C0310917D0330E0E9
:1002100020E00C151D052E053F0550F462E070E04E
:100220001F910F91FF90EF90DF90CF900C948D0075
:100230006111B1CF63E070E0F3CF70E060E0F0CF28
:10024000AF92BF92CF92DF92EF92FF920F931F93E4
:10025000CF93DF936C017B018B01040F151FEB0122
:100260005E01AE18BF08C017D10759F06991D601D9
:10027000ED91FC910190F081E02DC6010995892B4B
:1002800079F7C501DF91CF911F910F91FF90EF900A
:10029000DF90CF90BF90AF900895FC01538D448DB7
:1002A000252F30E0842F90E0821B930B541710F021
:1002B000CF96089501970895FC01918D828D98172E
:1002C00061F0A28DAE0FBF2FB11D5D968C91928D06
:1002D0009F5F9F73928F90E008958FEF9FEF089537
:1002E000FC01918D828D981731F0828DE80FF11D00
:1002F000858D90E008958FEF9FEF0895FC01918D1B
:10030000228D892F90E0805C9F4F821B91098F7313
:100310009927089587E592E00E947E0121E0892BCC
:1003200009F420E0822F089580E090E0892B29F0E5
:100330000E948A0181110C9400000895FC01A48D93
:10034000A80FB92FB11DA35ABF4F2C91848D90E0F7
:1003500001968F739927848FA689B7892C93A089DA
:10036000B1898C91837080648C93938D848D981364
:1003700006C00288F389E02D80818F7D80830895F7
:10038000EF92FF920F931F93CF93DF93EC0181E0E5
:10039000888F9B8D8C8D98131AC0E889F98980818C
:1003A00085FF15C09FB7F894EE89FF896083E889BF
:1003B000F98980818370806480839FBF81E090E0B1
:1003C000DF91CF911F910F91FF90EF900895F62E3E
:1003D0000B8D10E00F5F1F4F0F731127E02E8C8DD8
:1003E0008E110CC00FB607FCFACFE889F98980811D
:1003F00085FFF5CFCE010E949E01F1CFEB8DEC0F72
:10040000FD2FF11DE35AFF4FF0829FB7F8940B8F39
:10041000EA89FB8980818062CFCFCF93DF93EC01A3
:10042000888D8823B9F0AA89BB89E889F9898C91DC
:1004300085FD03C0808186FD0DC00FB607FCF7CF98
:100440008C9185FFF2CF808185FFEDCFCE010E9498
:100450009E01E9CFDF91CF910895833081F028F498
:10046000813099F08230A9F008958730A9F0883062
:10047000C9F08430B1F4809180008F7D03C08091F9
:1004800080008F7780938000089584B58F7784BD36
:10049000089584B58F7DFBCF8091B0008F778093D6
:1004A000B00008958091B0008F7DF9CFCF93DF9396
:1004B000282F30E0F901E458FF4F8491F901E2550B
:1004C000FF4FD491F901E656FF4FC491CC23A1F020
:1004D00081110E942D02EC2FF0E0EE0FFF1FE0577C
:1004E000FF4FA591B491EC91ED2381E090E009F4E8
:1004F00080E0DF91CF91089580E090E0FACF862FE1
:100500000C9456021F93CF93DF93282F30E0F9010C
:10051000E458FF4F8491F901E255FF4FD491F9015E
:10052000E656FF4FC491CC23A9F0162F81110E94EB
:100530002D02EC2FF0E0EE0FFF1FEE58FF4FA591BC
:10054000B4918FB7F894EC91111108C0D095DE23C7
:10055000DC938FBFDF91CF911F910895DE2BF8CFF1
:10056000862F642F0C948202CF93DF9390E0FC01DE
:10057000E255FF4F249186569F4FFC0184918823BA
:10058000C9F090E0880F991FFC01E859FF4FA59131
:10059000B491FC01EE58FF4FC591D49161110DC08B
:1005A0009FB7F8948C91209582238C93888128237F
:1005B00028839FBFDF91CF910895623051F49FB798
:1005C000F8943C91822F809583238C93E8812E2B85
:1005D000EFCF8FB7F894EC912E2B2C938FBFEACFEF
:1005E000862F642F0C94B4023FB7F8948091450293
:1005F00090914602A0914702B091480226B5A89B6F
:1006000005C02F3F19F00196A11DB11D3FBFBA2FA4
:10061000A92F982F8827BC01CD01620F711D811D64
:10062000911D42E0660F771F881F991F4A95D1F7E9
:1006300008958F929F92AF92BF92CF92DF92EF92E6
:10064000FF924B015C010E94F4026B017C010E944D
:10065000F4026C197D098E099F09683E734081057B
:100660009105A8F321E0821A9108A108B10888EE4B
:10067000C80E83E0D81EE11CF11C81149104A10472
:10068000B10429F7FF90EF90DF90CF90BF90AF902B
:100690009F908F900895089590E080E00895CF9303
:1006A000DF93EC0160E08E810E94820261E08E8126
:1006B0000E94820260E08E810E9482028BE891E0BB
:1006C0000197F1F7DF91CF910895CF92DF92EF92EA
:1006D000FF920F931F93CF93DF936C017C0187E010
:1006E000E80EF11CD0E0C0E0062F10E0B8010C2E9F
:1006F00002C0759567950A94E2F76170F7018191E0
:100700007F010E9482022196C430D10579F7C6018B
:10071000DF91CF911F910F91FF90EF90DF90CF90DD
:100720000C944F03CF92DF92EF92FF920F931F939F
:10073000CF93DF93EC01F62E642F8C810E9482020E
:100740008D818F3F19F060E00E9482020F2D10E032
:100750008F8584FF25C06E0187E0C80ED11CF12C67
:10076000E12CB8010E2C02C0759567950A94E2F74A
:100770006170F60181916F010E948202FFEFEF1A12
:10078000FF0A88E0E816F10461F7CE01DF91CF910E
:100790001F910F91FF90EF90DF90CF900C944F033B
:1007A000B80184E0759567958A95E1F7CE010E94BE
:1007B00065036F2DCE01DF91CF911F910F91FF90B7
:1007C000EF90DF90CF900C94650340E0682F84EFAA
:1007D00092E00C94920381E00E94E5038BE39FE199
:1007E0000197F1F70895CF93DF93613029F090914D
:1007F0000303986090930303609307031092080328
:1008000090E49093090380930A03805C80930B0328
:1008100061E08091F8020E94B4028091F9028F3F5A
:1008200019F061E00E94B40261E08091FA020E9436
:10083000B402C4EFD2E09E01245F324080910303F2
:1008400084FD0BC084E090E021962817390744F41A
:1008500061E08E810E94B402EECF88E090E0F4CF98
:100860008BE39DE00197F1F760E08091F8020E9430
:10087000820260E08091FA020E9482028091F90275
:100880008F3F19F060E00E9482028091030384FD93
:1008900034C063E084EF92E00E946503CBE4D6E4C9
:1008A000CE010197F1F763E084EF92E00E946503C7
:1008B0002197F1F763E084EF92E00E94650383E5FE
:1008C00092E00197F1F762E084EF92E00E94650305
:1008D0008091030380620E94E50384E08093040317
:1008E0008CE00E94E5030E94EB0382E08093050305
:1008F00086E0DF91CF910C94E50380620E94E503CE
:100900008BE496E40197F1F78091030380620E94E3
:10091000E50383E592E00197F1F78091030380629C
:100920000E94E503D5CF90910703691710F06FEF90
:10093000690FE62FF0E0EC50FD4F9489890F806835
:100940000C94E50341E00E94920381E090E0089559
:10095000FB0101900020E9F73197AF01461B570BCF
:10096000DC01ED91FC910280F381E02D09948F92DE
:100970009F92AF92BF92CF92DF92EF92FF92CF936E
:10098000DF93CDB7DEB7A1970FB6F894DEBF0FBEE9
:10099000CDBF6C01990FEE08FF08F7FE40C041E0A3
:1009A0006DE284EF92E00E94920322273327A9018F
:1009B0002C193D094E095F0919A2CE0181967C01CF
:1009C0009AE0892E912CA12CB12CCA01B901A50164
:1009D00094010E94770D605DF70162937F012115FC
:1009E00031054105510589F790E080E0309729F005
:1009F000BF0184EF92E00E94A8040196A1960FB671
:100A0000F894DEBF0FBECDBFDF91CF91FF90EF9086
:100A1000DF90CF90BF90AF909F908F900895A701E7
:100A2000960119A2CE0181967C018AE0882E912C34
:100A3000A12CB12CCA01B901A50194010E94770D26
:100A4000605DF70162937F01211531054105510574
:100A500089F790E080E0309789F2BF0184EF92E05F
:100A60000E94A804CBCF0F931F93CF93DF93EC0189
:100A70000E94A8048C0161E471E0CE010E94A804E8
:100A8000800F911FDF91CF911F910F9108950C94CA
:100A9000A804E7E5F2E0A089B18982E08C93A485FF
:100AA000B5851C92A685B7858FEC8C93108EA48992
:100AB000B58986E08C93A289B3898C9180618C93EF
:100AC000A289B3898C9188608C93A289B3898C9117
:100AD00080688C930288F389E02D80818F7D8083EC
:100AE00064E084E10E94F30364E471E087E592E04E
:100AF0000E94470564E471E084EF92E00E9447059C
:100B000068EE73E080E090E00E9419030E94EB031E
:100B100061E571E084EF92E00C9447051F920F921B
:100B20000FB60F9211242F933F934F935F936F93C0
:100B30007F938F939F93AF93BF93EF93FF9387E53B
:100B400092E00E949E01FF91EF91BF91AF919F9122
:100B50008F917F916F915F914F913F912F910F9066
:100B60000FBE0F901F9018951F920F920FB60F9205
:100B700011242F938F939F93EF93FF93E09167023C
:100B8000F09168028081E0916D02F0916E0282FD29
:100B90001BC09081809170028F5F8F7320917102D2
:100BA000821741F0E0917002F0E0E95AFD4F958F15
:100BB00080937002FF91EF919F918F912F910F90F1
:100BC0000FBE0F901F9018958081F4CF1F920F9247
:100BD0000FB60F9211242F933F938F939F93AF9350
:100BE000BF938091530290915402A0915502B0910D
:100BF00056023091440223E0230F2D3758F5019619
:100C0000A11DB11D2093440280935302909354027E
:100C1000A0935502B09356028091450290914602EE
:100C2000A0914702B09148020196A11DB11D809389
:100C3000450290934602A0934702B0934802BF91A9
:100C4000AF919F918F913F912F910F900FBE0F9079
:100C50001F90189526E8230F0296A11DB11DD2CF33
:100C6000CF92DF92EF92FF920F931F93E82FF92F0D
:100C700005C0015011092109310961F190819623C4
:100C80009417B9F305C0015011092109310911F177
:100C9000908196239413F7CFC12CD12CE12CF12C09
:100CA0000AC08FEFC81AD80AE80AF80A0C151D0501
:100CB0002E053F0579F080818623841791F36C2DF2
:100CC0007D2D8E2D9F2D1F910F91FF90EF90DF9026
:100CD000CF90089560E070E080E090E01F910F9168
:100CE000FF90EF90DF90CF9008950F931F93CF93D5
:100CF000DF9310925A021092590288EE93E0A0E01E
:100D0000B0E080935B0290935C02A0935D02B0938D
:100D10005E028DE191E0909358028093570285EC3A
:100D200090E0909364028093630284EC90E090934F
:100D300066028093650280EC90E090936802809355
:100D4000670281EC90E090936A028093690282ECE2
:100D500090E090936C0280936B0286EC90E090930D
:100D60006E0280936D0210927002109271021092C6
:100D700072021092730210921403109218031092D0
:100D80001703109219038BE391E090931303809360
:100D90001203EEE2F3E0108214821382158236967B
:100DA00083E0EA36F807B9F783E091E090937503A2
:100DB0008093740380E091E09093770380937603AF
:100DC000D4E0D0937803C3E0C093790387E091E047
:100DD00090937303809372030AE010E010937B03F7
:100DE00000937A0384EF91E090937D0380937C03DA
:100DF0001092800310927F0310926E0310926F0383
:100E0000109270031092710310927E0382E090E0C2
:100E10000E949F0D29E030E0FC0131832083109374
:100E20000D0300930C0390930F0380930E0381E056
:100E300090E0909311038093100361E08AE00E9498
:100E4000B402E0910E03F0910F0360E080810E94F4
:100E5000B4021092F7021092F6028FE291E09093A2
:100E6000F5028093F4028CE08093F8028FEF809378
:100E7000F9028BE08093FA0285E08093FB02D09325
:100E8000FC02C093FD0282E08093FE021092FF02FA
:100E900010920003109201031092020310920303B8
:100EA00061E080E1DF91CF911F910F910C94F303EA
:100EB000789484B5826084BD84B5816084BD85B535
:100EC000826085BD85B5816085BD80916E00816041
:100ED00080936E00109281008091810082608093E7
:100EE00081008091810081608093810080918000E9
:100EF0008160809380008091B10084608093B10014
:100F00008091B00081608093B00080917A0084600D
:100F100080937A0080917A00826080937A00809139
:100F20007A00816080937A0080917A008068809353
:100F30007A001092C1000E944905812C912C540125
:100F4000839456E0252E312C36E0732E81E0809379
:100F50007E038FB7F89440915302509154026091F0
:100F60005502709156028FBF80916E0390916F036E
:100F7000A0917003B0917103481B590B6A0B7B0B56
:100F800080917A0390917B03B0E0A0E084179507ED
:100F9000A607B70708F079C2C0E080917803C817A8
:100FA00060F4E0917403F0917503EC0FF11D62E0C1
:100FB00080810E94B402CF5FF0CF612C80917903D1
:100FC000681608F05FC0062D10E0E0917603F091FE
:100FD0007703E00FF11F61E080810E94B402E0918D
:100FE0007603F0917703E00FF11F60E080810E94AB
:100FF0008202D501C401062C04C0880F991FAA1FC4
:10100000BB1F0A94D2F76C017C01E094F094512C40
:10101000809178035816F8F4C52DD0E0E091740360
:10102000F0917503EC0FFD1F80810E9456022496FB
:10103000CC0FDD1FCE5EDC4F892B41F48881998176
:101040008C299D29998388835394E2CF8881998143
:101050008E219F21F7CFE0917603F0917703E00F87
:10106000F11F61E080810E9482028091760390915D
:101070007703080F191F60E0F80180810E94B40215
:1010800063949CCF02E113E0E8018F8D98A1892B36
:1010900031F41C8E8FEF9FEF9E8F8D8F19A22696B5
:1010A00093E0CE34D90789F7F12C80917803F816B4
:1010B00008F052C0E12CCF2CD12CCC0CDD1CF60159
:1010C000E65EFC4F6F0120917903E21608F042C002
:1010D000F601608171810E2C02C0769567950A94A5
:1010E000E2F7F29E900111242E0D311DE2E1F3E0B2
:1010F00080E0458D568D2417350709F4B7C38F5FFF
:1011000036968A30B1F760FF23C0E2E1F3E090E069
:1011100080E0448D411117C0E0917203F091730398
:10112000E20FF31F6081789EF001799EF00D11248B
:10113000EE5EFC4F648F368F258F10A2178E61E014
:101140000E94B00005C0019636968A30910509F7D5
:10115000E394B9CFF394A9CF80E0F80191A1911164
:10116000892F0A5F1F4FC017D107B9F79FB7F894AF
:101170004091530250915402609155027091560271
:101180009FBF40936E0350936F03609370037093FF
:101190007103882309F479C180913303882309F40A
:1011A00074C1C0913103D0913203C130D10509F02F
:1011B0006CC110912E031093520211116BC18091DA
:1011C0005102882309F445C30E94EB0361E086E0E5
:1011D0000E94B40261E086E00E948202D0E0C0E09A
:1011E00080914F0290915002C817D9070CF0E9C2C4
:1011F00060E080910C030E94820283E090E00197FE
:10120000F1F761E080910C030E94820283E290E09A
:101210000197F1F760E080910C030E948202F8943C
:10122000E0910E03F0910F03808191819927FC01D9
:10123000E255FF4F6491FC01E656FF4FE491F0E068
:10124000EE0FFF1FE057FF4F8591949100E412E4E9
:101250002FE030E0462F0E943006611571058105B0
:10126000910529F06F5F7F4F8F4F9F4F9F7078944C
:101270000E94E90C20E030E048E652E40E94410C74
:101280000E94B30C6B0192E3C916D1040CF07AC032
:101290006FED71E087E592E00E94330580914D0289
:1012A00090914E02019690934E0280934D02809150
:1012B0004B0290914C02019690934C0280934B020A
:1012C00021960E94EB0360E080E00E94930464EEAC
:1012D00071E084EF92E00E94470560E08AE00E949E
:1012E000930480914F02909150020E94B70461E0F4
:1012F00080E00E9493046FEE71E084EF92E00E9420
:10130000470561E089E00E949304CE010E94B70482
:1013100061E08CE00E9493046FED71E084EF92E055
:101320000E94470562E080E00E94930468EF71E04C
:1013300084EF92E00E94470562E08AE00E949304F5
:1013400080914D0290914E020E94B70463E080E0CC
:101350000E94930463E072E084EF92E00E944705EC
:1013600063E08AE00E9493048091490290914A02CE
:101370000E94B70468EE73E080E090E00E941903D9
:101380000E94EB03E3E3CE1AD108F8E1CF16D104B3
:1013900008F0E7C16EE072E087E592E00E94330555
:1013A0008091490290914A02019690934A0280935B
:1013B000490280914B0290914C02019690934C020D
:1013C00080934B0221960E94EB0360E080E00E9434
:1013D000930464EE71E084EF92E00E94470560E0C0
:1013E0008AE00E94930480914F02909150020E94E3
:1013F000B70461E080E00E94930464E172E084EF4E
:1014000092E00E94470561E089E00E949304CE01CA
:101410000E94B70461E08CE00E9493046FED71E0DC
:1014200084EF92E00E94470562E080E00E9493040E
:1014300068EF71E084EF92E00E94470562E08AE085
:101440000E94930480914D0290914E020E94B70435
:1014500063E080E00E94930463E072E084EF92E036
:101460000E94470563E08AE00E949304809149024C
:1014700090914A020E94B70468EE73E080E090E029
:101480000E9419030E94EB03ABCE10927E031092D0
:10149000520295CE0E94EB031A3299F40E94EB039C
:1014A0006AE671E084EF92E00E94330568EE73E033
:1014B00080E090E00E9419030E94EB030E9449051E
:1014C0007ECE113389F468E771E087E592E00E94EF
:1014D000330580914F0290915002009709F01CC192
:1014E000D0935002C0934F02809152028433D1F4C2
:1014F00061E871E087E592E00E94330520914F0298
:101500003091500284E090E02115310539F04AE035
:10151000429FC001439F900D112404969093500266
:1015200080934F02809152028733D1F46AE871E0D0
:1015300087E592E00E94330520914F0230915002DE
:1015400087E090E02115310539F04AE0429FC00163
:10155000439F900D112407969093500280934F0261
:10156000809152028033B1F463E971E087E592E043
:101570000E94330580914F0290915002009751F0E4
:101580004AE0489F9001499F300D1124309350024A
:1015900020934F02809152028233D1F46CE971E0C2
:1015A00087E592E00E94330520914F02309150026E
:1015B00082E090E02115310539F04AE0429FC001F8
:1015C000439F900D112402969093500280934F02F6
:1015D000809152028533D1F465EA71E087E592E0AB
:1015E0000E94330520914F023091500285E090E037
:1015F0002115310539F04AE0429FC001439F900D0B
:10160000112405969093500280934F0280915202CC
:101610008833D1F46EEA71E087E592E00E943305E9
:1016200020914F023091500288E090E02115310561
:1016300039F04AE0429FC001439F900D1124089663
:101640009093500280934F0280915202833259F45A
:1016500067EB71E087E592E00E9433050E94EB039F
:1016600081E080935102809152028333A1F464ECB3
:1016700071E087E592E00E94330520914F0230919E
:1016800050022115310509F054C0E3E0F0E0F09379
:101690005002E0934F0280915202863391F46DEC38
:1016A00071E087E592E00E94330520914F0230916E
:1016B00050022115310509F048C0309250022092A5
:1016C0004F02809152028933D1F466ED71E087E5D3
:1016D00092E00E94330520914F023091500289E040
:1016E00090E02115310539F04AE0429FC001439F47
:1016F000900D112409969093500280934F0280918F
:101700004F02909150020E94B70464E670E080E0BE
:1017100090E00E94190353CD4AE0489F9001499FF1
:10172000300D11242F5F3F4F3093500220934F0212
:10173000DBCE4AE0429FC001439F900D11240396E7
:101740009093500280934F02A6CF4AE0429FC0017F
:10175000439F900D112406969093500280934F0260
:10176000B0CF60E080E00E94930464EE71E084EF0B
:1017700092E00E94470560E08AE00E949304809115
:101780004F02909150020E94B70461E080E00E94F5
:10179000930464E172E084EF92E00E94470561E007
:1017A00089E00E949304CE010E94B70462E080E0C9
:1017B0000E9493046FE172E084EF92E00E9447057B
:1017C0000FCD0E94EB0360E080E00E94930468E28A
:1017D00072E084EF92E00E94470561E087E00E949A
:1017E000930480914D0290914E020E94B70462E0F2
:1017F00080E00E94930465E372E084EF92E00E942F
:10180000470563E087E00E9493048091490290912C
:101810004A020E94B70468EE73E080E090E00E9404
:1018200019030E94EB031092510261E086E00E94CE
:10183000B40260E086E00E94820268EE73E080E01D
:1018400090E00E94190361E571E084EF92E00E944C
:10185000470580E090E0892B09F478CB0E948A014B
:10186000882309F471CB0E9400006ECB617068CCB4
:1018700080910E0390910F03009711F00C943B0E92
:1018800008950E94550C0C943D0D0E94360D58F0A1
:101890000E942F0D40F029F45F3F29F00C94260D93
:1018A00051110C94710D0C942C0D0E944E0D68F387
:1018B0009923B1F3552391F3951B550BBB27AA2709
:1018C00062177307840738F09F5F5F4F220F331F43
:1018D000441FAA1FA9F335D00E2E3AF0E0E832D00B
:1018E00091505040E695001CCAF72BD0FE2F29D00E
:1018F000660F771F881FBB1F261737074807AB07E0
:10190000B0E809F0BB0B802DBF01FF2793585F4F54
:101910003AF09E3F510578F00C94260D0C94710D11
:101920005F3FE4F3983ED4F3869577956795B79536
:10193000F7959F5FC9F7880F911D9695879597F941
:101940000895E1E0660F771F881FBB1F62177307BA
:101950008407BA0720F0621B730B840BBA0BEE1FCF
:1019600088F7E09508950E94BA0C6894B1110C9420
:10197000710D08950E94560D88F09F5798F0B92F69
:101980009927B751B0F0E1F0660F771F881F991FB4
:101990001AF0BA95C9F714C0B13091F00E94700DD9
:1019A000B1E008950C94700D672F782F8827B85FE9
:1019B00039F0B93FCCF3869577956795B395D9F70C
:1019C0003EF490958095709561957F4F8F4F9F4F16
:1019D0000895E89409C097FB3EF490958095709522
:1019E00061957F4F8F4F9F4F9923A9F0F92F96E96B
:1019F000BB279395F695879577956795B795F111E0
:101A0000F8CFFAF4BB0F11F460FF1BC06F5F7F4F7C
:101A10008F4F9F4F16C0882311F096E911C077238E
:101A200021F09EE8872F762F05C0662371F096E897
:101A3000862F70E060E02AF09A95660F771F881F66
:101A4000DAF7880F9695879597F9089597F99F6724
:101A500080E870E060E008959FEF80EC0895002436
:101A60000A941616170618060906089500240A9403
:101A700012161306140605060895092E0394000C89
:101A800011F4882352F0BB0F40F4BF2B11F460FF18
:101A900004C06F5F7F4F8F4F9F4F089557FD905841
:101AA000440F551F59F05F3F71F04795880F97FB22
:101AB000991F61F09F3F79F08795089512161306DC
:101AC0001406551FF2CF4695F1DF08C0161617060B
:101AD0001806991FF1CF8695710561050894089540
:101AE000E894BB2766277727CB0197F90895A1E2F1
:101AF0001A2EAA1BBB1BFD010DC0AA1FBB1FEE1F88
:101B0000FF1FA217B307E407F50720F0A21BB30BD2
:101B1000E40BF50B661F771F881F991F1A9469F74E
:101B200060957095809590959B01AC01BD01CF01AA
:101B30000895EE0FFF1F0590F491E02D09940F9387
:101B40001F93CF93DF938230910510F482E090E0F1
:101B5000E0918303F091840330E020E0B0E0A0E066
:101B6000309799F42115310509F44AC0281B390B27
:101B700024303105D8F58A819B816115710589F181
:101B8000FB0193838283FE0111C040815181028158
:101B9000138148175907E0F04817590799F410972F
:101BA00061F012960C93129713961C933296CF0104
:101BB000DF91CF911F910F910895009383031093AC
:101BC0008403F4CF2115310551F04217530738F043
:101BD000A901DB019A01BD01DF01F801C1CFEF01CD
:101BE000F9CF9093840380938303CDCFFE01E20F5E
:101BF000F31F819391932250310939832883D7CFE2
:101C00002091810330918203232B41F4209115010F
:101C100030911601309382032093810320911301A8
:101C2000309114012115310541F42DB73EB7409193
:101C3000170150911801241B350BE0918103F0919D
:101C40008203E217F307A0F42E1B3F0B2817390776
:101C500078F0AC014E5F5F4F2417350748F04E0F08
:101C60005F1F5093820340938103819391939FCF91
:101C7000F0E0E0E09CCFCF93DF930097E9F0FC0128
:101C8000329713821282A0918303B0918403ED01F5
:101C900030E020E01097A1F420813181820F931F62
:101CA00020918103309182032817390709F061C020
:101CB000F0938203E0938103DF91CF910895EA01CD
:101CC000CE17DF07E8F54A815B819E01411551057A
:101CD000B1F7E901FB83EA8349915991C40FD51FFC
:101CE000EC17FD0761F4808191810296840F951FA6
:101CF000E90199838883828193819B838A83F0E0C1
:101D0000E0E012968D919C9113970097B9F52D9173
:101D10003C911197CD010296820F931F2091810370
:101D2000309182032817390739F6309751F5109210
:101D3000840310928303B0938203A0938103BCCFEA
:101D4000D383C28340815181840F951FC817D9075F
:101D500061F44E5F5F4F88819981480F591F51830D
:101D600040838A819B81938382832115310509F009
:101D7000B0CFF0938403E09383039ECFFD01DC0199
:101D8000C0CF13821282D7CF10E0C2E6D0E004C0E9
:101D9000FE010E94990D2196C336D107C9F7F89428
:101DA000FFCF0E0F101112130D3132333435363789
:101DB00038392A302300008503800000000000C06D
:101DC0000120014D010D027E015C01700100000047
:101DD00000A20420014C034B0300000000F002B0FD
:101DE000027F020D0A005374617274696E672E2EB1
:101DF0002E2100456E746572204E756D62657220ED
:101E00006F662070726F64756374730042757474CA
:101E10006F6E2043616E63656C00427574746F6E03
:101E2000203100427574746F6E20340042757474F2
:101E30006F6E203700427574746F6E2030004275EB
:101E400074746F6E203200427574746F6E203500AA
:101E5000427574746F6E203800427574746F6E2012
:101E6000457175616C00427574746F6E2033004269
:101E70007574746F6E203600427574746F6E2039FD
:101E80000054616C6C00546F74616C202020203A07
:101E9000004F6E676F696E673A0054616C6C20206A
:101EA0002020203A0053686F7274202020203A00CE
:101EB00053686F7274004F6E676F696E6720203AC7
:101EC00000434845434B494E470054616C6C204FDA
:101ED000626A656374730053686F7274204F626A3C
:061EE0006563747300004D
:107E0000112484B714BE81FFF0D085E080938100F7
:107E100082E08093C00088E18093C10086E0809377
:107E2000C20080E18093C4008EE0C9D0259A86E02C
:107E300020E33CEF91E0309385002093840096BBD3
:107E4000B09BFECF1D9AA8958150A9F7CC24DD24C4
:107E500088248394B5E0AB2EA1E19A2EF3E0BF2EE7
:107E6000A2D0813461F49FD0082FAFD0023811F036
:107E7000013811F484E001C083E08DD089C08234E0
:107E800011F484E103C0853419F485E0A6D080C0E4
:107E9000853579F488D0E82EFF2485D0082F10E0AE
:107EA000102F00270E291F29000F111F8ED06801E7
:107EB0006FC0863521F484E090D080E0DECF843638
:107EC00009F040C070D06FD0082F6DD080E0C81688
:107ED00080E7D80618F4F601B7BEE895C0E0D1E017
:107EE00062D089930C17E1F7F0E0CF16F0E7DF06D8
:107EF00018F0F601B7BEE89568D007B600FCFDCFD4
:107F0000A601A0E0B1E02C9130E011968C91119780
:107F100090E0982F8827822B932B1296FA010C0160
:107F200087BEE89511244E5F5F4FF1E0A038BF0790
:107F300051F7F601A7BEE89507B600FCFDCF97BE46
:107F4000E89526C08437B1F42ED02DD0F82E2BD052
:107F50003CD0F601EF2C8F010F5F1F4F84911BD097
:107F6000EA94F801C1F70894C11CD11CFA94CF0C13
:107F7000D11C0EC0853739F428D08EE10CD085E9AC
:107F80000AD08FE07ACF813511F488E018D01DD067
:107F900080E101D065CF982F8091C00085FFFCCF94
:107FA0009093C60008958091C00087FFFCCF809118
:107FB000C00084FD01C0A8958091C6000895E0E648
:107FC000F0E098E1908380830895EDDF803219F02E
:107FD00088E0F5DFFFCF84E1DECF1F93182FE3DFCA
:107FE0001150E9F7F2DF1F91089580E0E8DFEE27F6
:047FF000FF270994CA
:027FFE00040479
:00000001FF
